:020000022000DC
:1070000000000420757302005D7302005F730200CC
:1070100061730200637302006573020000000000E8
:107020000000000000000000000000006773020084
:1070300069730200000000006B7302006D730200B0
:107040008D9502006F7302006D9A020009AF020075
:107050006F7302006F730200ED98020039A70200FF
:107060006F7302006F7302006F7302006F73020090
:107070006F7302006F7302006F7302006F73020080
:107080006F730200098702006F7302006F730200C2
:107090006F7302006F73020071CD02006F73020004
:1070A0006F7302006F7302006F7302006F73020050
:1070B00091A602006F7302000000000000000000B3
:1070C0006F7302006F7302006F7302006F73020030
:1070D0006F7302006F7302006F7302006F73020020
:1070E0006F7302006F7302006F73020000000000F4
:1070F000000000006F730200000000006F730200C8
:10710000000000000000000000000000000000007F
:10711000000000000000000000000000000000006F
:10712000000000000000000000000000000000005F
:10713000000000000000000000000000000000004F
:10714000000000000000000000000000000000003F
:10715000000000000000000000000000000000002F
:10716000000000000000000000000000000000001F
:10717000000000000000000000000000000000000F
:1071800000000000000000000000000000000000FF
:1071900000000000000000000000000000000000EF
:1071A00000000000000000000000000000000000DF
:1071B00000000000000000000000000000000000CF
:1071C00000000000000000000000000000000000BF
:1071D00000000000000000000000000000000000AF
:1071E000000000000000000000000000000000009F
:1071F000000000000000000000000000000000008F
:10720000354936480A1A02D0072291438D4634493F
:1072100034480A1A06D00722914381F309880222D2
:1072200082F3148830483149314A00F044F831483B
:107230003149324A00F03FF831483249324A00F0D1
:107240003AF832483249334A00F035F83248334987
:10725000334A00F030F833483349344A00F02BF811
:1072600033483449344A00F026F83448344900227F
:1072700000F02CF833483449002200F027F8334856
:107280003349091A082902DB002202604160314AB1
:1072900090471F481F49884205D00268043003B454
:1072A000904703BCF7E700208646EC46002000210B
:1072B000294A9047FEE7884207D0521A05D0037842
:1072C00001300B700131013AF9D17047884202D088
:1072D00002700130FAE770470000042000E003204C
:1072E000000004200000042020E20200002300200F
:1072F00068230020D0730200D073020074D2020011
:1073000020E20200002300200023002080D302009E
:1073100080D3020080D3020080D3020080D3020019
:1073200080D3020080D3020080D302001EE202005C
:1073300088E20200682300206823002068230020E0
:10734000202D0020202D0020202D0020202D002089
:10735000204D00209D7302008DB50200FEE7FEE780
:10736000FEE7FEE7FEE7FEE7FEE7FEE7FEE7FEE7F5
:1073700000F002B8FFF7FCBF0F484FF00701884349
:1073800085460E4880470E48016841F4700101604F
:10739000BFF34F8FBFF36F8FFFF732BF09480A4922
:1073A0000A4A884207D0521A05D0037801300B7080
:1073B0000131013AF9D170470000042079900200B0
:1073C00088ED00E080D3020000230020002300208D
:1073D000F0B595B01D46164608460C4601F046FD30
:1073E0001A9B0D93CDE9086500252B46082205A9B7
:1073F00020460A958DF82C500C9501F054FD079B02
:107400000293069B03939DF814308DF8115003F0FE
:107410000302012A1DD1BDF81420059DC3F3C20348
:10742000C2F383168DF81030B20008230EA920464F
:1074300001F039FDC5F3952508AB0093324602AB48
:107440000EA9284600F0AAFB204601F013FD15B056
:10745000F0BD022AF8D1BDF81650C3F3C203C5F33C
:1074600089158DF810300827082D2E4628BF0826CC
:107470003B4632460EA9204601F015FDAD1B08AB78
:1074800002AA31460EA8374400F0ECFB002DEBD1E8
:10749000DAE70000014B01221A707047A92300208F
:1074A0007047000070B5124D06460FCD88B06C468F
:1074B0000FC495E80F00002E84E80F004FF0FF3353
:1074C0004FF00602CDE90023CDE90233094A0A480C
:1074D0004FF0EB7308BF00226946069301F0DCFF12
:1074E00008B100F0B3FD054B1E7008B070BD00BFC1
:1074F00080D302009574020000230020682300203E
:1075000007B5044B0093044A4023FFF761FF03B023
:107510005DF804FB1D7502006923002038B50D4B92
:107520000D4D002018700D4804782D5DD2B21C4618
:1075300065B1043002F044FF08B100F087FD084B4C
:107540001A7812B12378002BFBD038BD0C3002F032
:10755000DBFCF1E7A9230020602A002000230020A3
:107560006823002008B50848084A0378D35C3BB17B
:10757000043002F0A1FEBDE808400020FFF792BFF2
:107580000C3002F065FCF6E700230020602A0020A2
:107590000120FFF787BF000008B5FFF7F9FF044897
:1075A000042100F065FA034B01225A7108BD00BFA7
:1075B00070D3020014230020037813F0040216D0C5
:1075C00003F00303012B03D0022B09D001207047E5
:1075D0000A6800880232C0F3831002440A60F5E7AB
:1075E0000B684288023303EB92130B60EEE7104600
:1075F000704700002DE9F04F87B000230446861C39
:107600000DF107000F4615468DF8073000F00EFF0C
:10761000404A51683960936803F580735B1A92465B
:1076200002F21C4702F5836902F21448B3421AD3EE
:107630000020002D69D004F00F039B0143F00503E7
:1076400063F30F00DAF80430DAB203321E444AF86A
:1076500022009DF80700CAF8046000F00BFF01202B
:1076600007B0BDE8F08F0121384601F02AF94846FD
:1076700001F03FF9404601F03CF9DAF808000290C9
:10768000C0B203300AEB800002A9FFF795FF029B0E
:1076900030BBDAB20AEB8202D16803919A1C013343
:1076A000DBB20AEB83030292D3F80CB001F00303C0
:1076B000012B22D0022B15D08346404601F01CF945
:1076C00010B1029BCAF808305946384601F0F9F863
:1076D000DAF80830DAF8042003F580739B1AA5E77E
:1076E000D8B2CEE7BDF80E30C3F3891303334FEAA7
:1076F0001B4B02EB93030293DFE7BDF80C30C3F39F
:1077000083134FEA1B4B1344F5E7A40544F006002E
:1077100098E700BF7C240020064B074810B50022E4
:107720001A7001F05CFB044610B9044801F004FC37
:10773000204610BD7C240020C4D20200D4D3020015
:1077400030B50A4C71B10A4A0A49121BD20800230B
:107750009A4201D1002030BD31F82350854202D039
:107760000133F5E7034654F83300F4E7D8D20200BA
:1077700070D3020000230020094B013903EBC00045
:10778000032909D8DFE801F00A0204060420704743
:107790000079704740797047002070470220704799
:1077A000D8D20200034BD3E90130C31A58425841E2
:1077B000704700BF7C2400202DE9F04186B0FFF720
:1077C000F1FF0546002840F0E680744CC4F8180428
:1077D000BFF34F8FA3680293DBB2033304EB830044
:1077E00002A9FFF7E9FE029B18B1D4F81824002A79
:1077F00055D0DAB2991C013304EB8202DBB204EB00
:107800008303D268DB68049302F00303022B039224
:1078100002914FD1BDF80E306148C3F38917502F44
:107820003E4628BF502666F38F1306F10801ADF8D7
:107830000E3001F0ECFA0546002800F0978001F0C8
:1078400015FB002303A90822284601F022FB029918
:10785000CB43DBB20133C9B20331B6EB830F4FEA3E
:10786000830804EB810122D908234246A6EB0806CF
:10787000284601F00EFBF6B24A4908F108033246E9
:10788000284601F006FB029B033703EB970702979C
:10789000D4F81834002B41D1D4F8106451E0626858
:1078A0009A4299D8A260284606B0BDE8F081082324
:1078B0003246E5E7012B59D1BDF80C303848C3F307
:1078C0008311062928BF062161F38913023189003B
:1078D000ADF80C3001F09BFA0546002846D001F0C7
:1078E000C5FA0023082203A9284601F0D2FA00268F
:1078F000BDF80C20C2F38312B300964203F10803D3
:10790000C6D202994A1CC9B20331029204EB81012A
:107910000422284601F0BDFA0136E9E7284601F0C5
:10792000A9FAFFF73FFF80F00100C5B2BBE7F3689B
:107930005B7923B1336829461B6830469847F36862
:107940001E68002EF3D1284601F094FA0DF10700CD
:107950008DF8076000F06AFDD4F818340BB9029B6B
:10796000A3609DF8070000F085FDDAE7D4F8104425
:1079700054B90D4B0D480E49C01AC008000440F020
:10798000020000F05DF8CCE7236820469B6898472A
:10799000E3681C68ECE7002585E700BF7C24002035
:1079A000C4D2020088240020D8D2020020D30200D2
:1079B000BDD302002DE9F34704460E46924601A9C5
:1079C000012218469946FFF715FE1B4F10B3019D83
:1079D0004FF00008AA1CC84508EB020123D1174844
:1079E000002100F03FFF80F31000000440EA144043
:1079F000E4006B1C04F03804DBB2EDB244F0010487
:107A000007EB8303033544EA881444EA8624D860EC
:107A100047F825403B781BB1FFF7CEFE0028FBD18D
:107A200002B0BDE8F087C9B207EB81015AF82830EF
:107A3000CB6008F10108CEE77C24002098280020C4
:107A400000231A46FFF7B6BF07B50123019201AA2A
:107A5000FFF7B0FF03B05DF804FB07B5CDE90023E5
:107A600002236A46FFF7A6FF03B05DF804FB00009F
:107A700030B50F49D1F8102403460020144634B91C
:107A8000DC6820714AB9C1F81034226030BDE46866
:107A90002579854206D02468F1E7D2681168216013
:107AA0001360F3E701300A28E8D14FF0FF30EDE72B
:107AB0007C240020084A38B50123D2F81044137002
:107AC0001D4604B938BDE3685D71236820465B68D4
:107AD0009847E3681C68F4E77C24002007B5034658
:107AE0000846197A052911D05B7A2BB1094A0A494F
:107AF000019000F064FF01980849019000F05FFFD9
:107B0000019803B05DF804EB00F04EBF002AF8D0F6
:107B1000F2E700BFE0D30200E5D302009ADB0200E7
:107B200030B5C38885B004460D4633B1144A00927F
:107B30001449154A284600F042FF217A05291DD034
:107B4000637A4BB1A088FFF717FE104B104953F82A
:107B50002020284600F033FF227A0E4BA08853F8ED
:107B6000222003920021FFF7EBFD039A0A49034606
:107B7000284605B0BDE8304000F021BF05B030BD5B
:107B8000E0D30200F0D30200E8D302006CD402007C
:107B9000E5D3020090D4020008D402002DE9F0439E
:107BA00085B01F460C9D002395F80C902B7306465C
:107BB0000C46904629463846FFF7B2FFB8F1060F4B
:107BC00009D8DFE808F00412181F283340003146B6
:107BD000284600F0F4FE002229463846FFF77EFFD3
:107BE00085F80C9005B0BDE8F08322683146284640
:107BF00000F0E5FEEFE7D4E900233146284600F027
:107C0000DEFEE8E7A36800933146D4E90023284666
:107C100000F0D5FEDFE7E3680193A36800933146E7
:107C2000D4E90023284600F0CAFED4E72369029372
:107C3000E3680193A36800933146D4E90023284602
:107C400000F0BDFEC7E76369039323690293E3680D
:107C50000193A36800933146D4E90023284600F03D
:107C6000AEFEB8E708292DE9F74F80460E461746C5
:107C70001C463CD8002593F80C901D7319461046FD
:107C8000FFF74EFFDFF888A0DFF888B0AE4231D9A9
:107C900018F805205946204600F091FE0135082DC0
:107CA000F4D11949194DDFF870A0204600F087FE85
:107CB0004FF0000B5E4522D918F80B207E2A05D81C
:107CC0001046019205F0FAF9019A00B92E225146A8
:107CD000204600F074FE0BF1010BBBF1080FE9D157
:107CE000012221463846FFF7F9FE84F80C9003B0D4
:107CF000BDE8F08F5146204600F061FECEE72946F0
:107D0000204600F05CFEE6E71CD402001AD4020014
:107D100018D4020012D402001ED40200C30710B50A
:107D200007D4F023054A4008145C2340194311543A
:107D300010BD0901C9B20F23F4E700BF6829002074
:107D400030B5094B1C78094B196800239C4202DCB2
:107D50000022104630BD11F83350854201EBC302BA
:107D6000F7D00133F2E700BF342900208829002032
:107D700013B504460191FFF7E3FF38B143682BB117
:107D80000199204602B0BDE81040184702B010BD6E
:107D9000034B044819680022490800F056BA00BF96
:107DA000382900204029002010B5C0B2FFF7C8FFD5
:107DB0000446007801F08CFD63785A1E534253410B
:107DC000834208D1044BD3E90023134303D1BDE818
:107DD0001040FFF7DDBF10BD6029002037B5430814
:107DE000354AD35CC2074CBF1B0903F00F0304469E
:107DF0000D46042B35D8DFE803F003252C383C0072
:107E000079B30121FFF78AFF00230DF107008DF8F8
:107E1000073000F00BFB0120A4F12003C4F1200186
:107E2000264A20FA01F100FA03F30B43A040D2E9FD
:107E3000004120430B43C2E900039DF8070000F016
:107E400019FB0EE0002918BF02212046FFF766FF4C
:107E500007E041B10321FFF761FF01212046FFF751
:107E600087FF03B030BD0121EFE70029F9D10421DC
:107E7000EBE709B10321E8E7FFF750FF2946204669
:107E8000FFF776FF0DF107008DF8075000F0CEFAEE
:107E90000120A4F12003C4F12001084A20FA01F1D5
:107EA00000FA03F30B43A040D2E9004124EA0000AA
:107EB00021EA0303BFE700BF6829002060290020F2
:107EC0002DE9F041124E134F00243378A34208DC11
:107ED000114BD3E90023134318D0BDE8F041FFF75D
:107EE00057BF3D6805EBC40815F8340001F0F0FCFD
:107EF00098F801305A1E53425341181A41424141E9
:107F000015F83400FFF76AFF0134DEE7BDE8F081C1
:107F1000342900208829002060290020092AF7B58B
:107F200005460C4616463CD901F0E0FBD8B11E4B85
:107F30001E481D601E4B1F4F1C701F4B002120222E
:107F40001E6005F032F91D4B00200021C3E900013D
:107F5000013CE4B20326FF2C0BD1194A1948002139
:107F600000F068F903E001F07BFB0028DFD003B0EC
:107F7000F0BD9DF8063015F834008DF8046005EB6F
:107F8000C40223F007038DF8063001A993788DF819
:107F900005303A4601F0B4FB013CE4B20028DAD0E7
:107FA000E5E70720E3E700BF8829002068290020D3
:107FB00034290020A97D02003829002060290020F2
:107FC000C17E0200B0D4020070B5084D084E0024F6
:107FD0002B789C4201D3002070BD3368012113F837
:107FE000340001F009FC0134F2E700BF342900201D
:107FF0008829002073B5114D114E00242B789C4226
:1080000014D300230DF107008DF8073000F00EFAAD
:108010000C4B00210020C3E900019DF8070000F08F
:1080200029FA094800F029F902B070BD336813F845
:10803000340001F02BFC0134E0E700BF34290020BC
:108040008829002060290020402900201FB5002138
:10805000039001AA44F20100CDE9011100F004F8F7
:1080600005B05DF804FB000010B572B6FFF722FD05
:10807000FFF7A2FB0028FBD1104B114C1149E41A69
:10808000E408240444F00100FFF7DAFC0E4B1B68FF
:10809000DB0700D500BE0D4944F00200FFF7D0FC1D
:1080A000BFF34F8F0A490B4BCA6802F4E0621343D7
:1080B000CB60BFF34F8F00BFFDE700BFD8D20200F7
:1080C00020D30200B4D40200F0ED00E0C0D40200DE
:1080D00000ED00E00400FA05D0E90223D1E9020135
:1080E000994208BF90422CBF012000207047000039
:1080F00008B50B4800F0F1FA0A4B0B49D3E900230D
:108100001218D1E9000143F100038B4208BF8242FB
:1081100003D212F1807243F100031046194608BDE4
:108120001C23002090290020082A002037B505468E
:108130000C460A4801A900F004FB60B105704460D8
:1081400001A9064800F027FB18B1054800F0CAFA5B
:10815000002003B030BD0420FBE700BFF42900205D
:108160001C23002038B5184B1B78044613B9002592
:10817000284638BD0028FAD0037F03F0FF05002B06
:10818000F5D0FFF7B5FFD4E90223994208BF90422A
:1081900014D3236903B92377D4E9053098472169BB
:1081A0000029E4D0237F03F0FF05002BDFD0D4E9C2
:1081B0000223521843F10003C4E902230348214675
:1081C00000F0D9FED4E700BF98290020DCD40200DB
:1081D00013B5114B11491868019008231048582213
:1081E00000F09CFA044698B90E4A0F4801A900F025
:1081F00065F9044660B90C48012100F051FA0123E9
:108200000A4A0948194600F0B3F9094B01221A70CD
:10821000204602B010BD00BFD8D402009C29002027
:10822000F4290020958202001C230020FFFF7F001C
:10823000982900203AB103685A614A1E51425141BF
:108240001961002070470720704738B5037F044646
:108250000D4683B98261FFF74BFF2369401941F155
:108260000001C4E9020103B1256121460020BDE8F7
:108270003840FFF75BBF002038BD0023014603777D
:108280000120FFF753BF0000014800F026BA00BFED
:108290001C2300202DE9F04F85B0804600F008FA3D
:1082A00040B15A4AD2E9003113F1807341F1000123
:1082B000C2E900310021404600F009FA38B1544EBD
:1082C000336823B13068FFF74DFF0023336001218D
:1082D000404600F0FCF920B1FFF70AFF4D4BC3E91F
:1082E00000014D484A4F4D4EDFF8389103A900F088
:1082F00062FA002845D1DFF82491454EDFF828A125
:10830000484600F04EFE3368002875D07BB13368D4
:10831000D0E90201D3E90223994208BF90422DD24D
:1083200033681B7F1BB13168484600F024FE484685
:1083300000F031FED0E902B307460193FFF7D8FE03
:10834000019BBBEB000463EB0105012C75F10003FD
:1083500045DBB4F5350F40D3FFF796FF304A0244B2
:108360004FF496030021504600F022F900283ED138
:10837000336813B9404600F0F3F8376005B0BDE844
:10838000F08F0378012B1DD0022B09D14FF0000A8A
:10839000304600F000FE002834D080F81CA0F7E73B
:1083A0003BB941680B7F23B901230B77304600F0BE
:1083B000E2FD03A9184800F029FA03A9164800F0C5
:1083C000FAF996E741683B68994202D100233B6085
:1083D000EFE7304600F0E8FDEBE7BA68C0E70021C0
:1083E000504600F06AF93846FFF7BCFE01E00D2860
:1083F000F9D00023336083E7002BBFD1404600F063
:10840000B3F8BBE7012389F80030D2E790290020B8
:10841000102A0020082A0020F4290020DCD40200C1
:10842000FFFFB400982900201C23002070B5EFF353
:10843000108672B60C4A946801239CB993600B4B6A
:108440000B4DD3F8801029401160C3F88050D3F849
:10845000841051604FF0FF32C3F88420047006B9D5
:1084600062B670BD0370FAE7142A002000E100E054
:10847000FC06FFBD084B9A6810B55AB150B9EFF32E
:10848000108172B6054A1C6814605C68546098607C
:1084900001B962B610BD00BF142A002000E100E05F
:1084A000435882B03BB10023435043580193019B92
:1084B000012002B070471846FBE70000F8B5204BDA
:1084C0004479204D43F824201F4A204B05EBC40477
:1084D0009B1A2279DB081B0432B143F002001C49CD
:1084E000FFF7AEFA0820F8BD02680C88C2F808450C
:1084F00090F904608A7804795201002ED2B219DB17
:1085000014498F1987F800230122760904F01F040B
:1085100002FA04F441F82640427905EBC201012435
:1085200045F832000C7143F003000B49FFF788FA5D
:108530000020D8E7094904F00F040A55ECE700BF12
:10854000282A0020202A0020D8D2020030D302009E
:10855000E8D4020000E100E00AD5020014ED00E0DA
:10856000036801221A607047036801225A6070474D
:1085700073B501F15005AD000068ADB24FF4803421
:108580008C400026C0F80843C0F84843465101F526
:10859000A8714559019522F07F42019D40F82120A4
:1085A000C0F844430BB1C0F8044302B070BD0000F2
:1085B0002DE9F74F0D4622F07F4402684FF48037D3
:1085C00005F150068F408046B60002EB8500C2F8E8
:1085D0004873B6B2C2F80873D2F8041599464FF042
:1085E000000BD0F84035C0F8401542F806B05B1AD1
:1085F0009259009223F07F43012B009A4FEA850A9B
:108600000CD1264B4FF4806043F001039847D8F813
:10861000003043F806B09B590193019BD8F8001035
:10862000D1F80465C1F84473A31B23F07F43012BE9
:108630001CD11A4B05F5A875013443F0010341F82C
:1086400025404FF480609847D8F80030D3F80435BF
:108650009E4209D1D8F800300020C3F84473C3F813
:10866000047303B0BDE8F08F0D20FAE78A44C9F126
:10867000FF13CAF84045D1F80405221A013A22F046
:108680007F4203F57F439342EED3002AE2D10134C7
:10869000CAF84045D1F804359842DAE720D50200FF
:1086A00003680222C3F8442309B1C3F804237047C6
:1086B00000684FF48271FFF7F3BE4FF4803303FA82
:1086C00001F10368C3F84813C3F808137047503129
:1086D0008900006889B2FFF7E3BE0368D3F8040598
:1086E0007047000090F90430002B09DB5A09012182
:1086F00003F01F0301FA03F34032024941F822302C
:10870000704700BF00E100E0024B034A1B6810689D
:10871000184700BF282A0020202A002010B561B188
:10872000B2FBF3F403FB1424A4B244B9C0E900146F
:1087300084608281C381204610BD0E20FCE70920A1
:10874000FAE737B550E8013F9DB2C48925448489D2
:10875000A54228BF2D1B0489A54202BFBFF32F8F5E
:10876000002207E0C5EA030540E80154002CE9D1E6
:108770004FF001028DF803200193019B9DF8032027
:108780000B6002F0FF0322B10B880068184403B0AD
:1087900030BD1846FBE70A884B889A4209D150E859
:1087A000012FC2EA024240E80123002BF7D1012049
:1087B00070470020704737B550E8023F1FFAA3F515
:1087C000C488A54202BFBFF32F8F00220DE0C489E9
:1087D00025448489A54228BF2D1BC3EA054540E8EE
:1087E0000254002CE8D14FF001028DF803200193D0
:1087F000019B9DF803200B6002F0FF0322B14B8820
:108800000068184403B030BD1846FBE70A884B885F
:108810009A4209D150E8022FC2EA224240E80223DC
:10882000002BF7D1012070470020704701F01F0294
:108830004B090121914000EB830000F01EB801F0CC
:108840001F0301229A404B0900EB8300D14300F043
:108850002CB84B0901F01F0150F82300C84000F06C
:108860000100704710B5034653E8000F0A4643E87D
:10887000002494F0000FF7D110BD10B5034653E863
:10888000002F42EA010043E8000494F0000FF6D103
:1088900010BD10B5034653E8000F00EA010243E89B
:1088A000002494F0000FF6D110BD10B5034653E834
:1088B000002F02EA010043E8000494F0000FF6D113
:1088C00010BD10B5034653E8002F02EB010043E84A
:1088D000000494F0000FF6D110BD10B5034653E824
:1088E000002FA2EB010043E8000494F0000FF6D142
:1088F00010BD0121FFF7C1BF0021FFF7CABF10B5AE
:1089000090B1D0E9012301689B1ADBB20A60013BF8
:10891000DBB2FF2B026802D10020107110BD11687C
:108920004C1C14600B70F2E70E20F7E737B50546D4
:1089300000240DF107008DF80740FFF777FD2A6846
:108940006B68116899420ED9481E106011F8014CED
:10895000EB68298A01FB0434AB6811791B1ADBB27E
:10896000994238BF13719DF80700FFF783FD204639
:1089700003B030BD37B5054600230DF107000C46A6
:108980008DF80730FFF752FD2A681368591C1160F3
:10899000E968641A298AB4FBF1F41C709DF8070099
:1089A000FFF768FD03B030BD826810B504462AB1F8
:1089B00043690168006998470023A36010BD0EB4A5
:1089C00003B5039921B104AB01AA019300F076F835
:1089D00002B05DF804EB03B070470A2938B50446CD
:1089E0000D4602D10D21FFF7F8FFA3682268591C3C
:1089F000A160D554D4E901329A4204D32046BDE89F
:108A00003840FFF7D1BF38BD2DE9F84F9846DDE972
:108A10000A43154682460F460A464FF00109AA420C
:108A20000FD2C14538BFC14613F0010B01D16CB95B
:108A300000240126B8F1010F1BD908F1FF386E435D
:108A4000F8E709F10109B2FBF5F2E8E79B070ED55B
:108A5000B8F1000F0CBF30262026A145E9D2013C19
:108A600031465046FFF7B9FF002CF6D1E0E720264B
:108A7000F3E7B7FBF6F39D42E1D9DFF83C80B7FBA3
:108A8000F6F3504618F8031006FB1377FFF7A5FF1F
:108A90003346AB42B6FBF5F6F1D2BBF1000F02D084
:108AA0000CB1A14501D3BDE8F88F20215046013C0F
:108AB000FFF793FFF4E700BF26D502002DE9F74F3B
:108AC000054617468846002900F0428118F8011B28
:108AD00049B92B7B002B00F03B81284603B0BDE851
:108AE000F04FFFF761BF252940F0B780002698F8C6
:108AF00000302D2B424608F1010823D0302B24D022
:108B00002B2B25D000242A2B02F1010123D13B6815
:108B10001A1D1B683A601C440A4613782E2B26D176
:108B200001324FF0000A104610F8011BA1F1300C81
:108B3000BCF1090F1DD80A2303FB0A13A3F1300A65
:108B40000246F0E746F00106D1E746F00206CEE71E
:108B500046F00406CBE711F8013CA3F130000928E8
:108B6000DBD80A2202FB0434303C0A46CBE74FF044
:108B7000000A12F8011B01F0FB0068289046F8D0AB
:108B8000782909D86F290CD8632962D022D82529E1
:108B900063D0582900F0888098F80030002B95D1D8
:108BA00097E770390829F7D801A353F821F000BFDF
:108BB0002B8D0200998B0200998B0200B98C020068
:108BC000998B0200978C0200998B0200998B02000E
:108BD000A98C0200642901D06929DDD13A68D2F854
:108BE0000090111D89EAE9723960A2EBE9724FF039
:108BF000010B092A35DCD34538BFD3462CB1B9F176
:108C0000000F01DB720700D5013CB30702D5BAF1B2
:108C1000000F03D0F00701D44CBB0024B9F1000FC2
:108C20002DDAC9F100092D212846FFF7D6FE06F0FE
:108C30000302022A04D1BAF1000F01D11CBB0024A7
:108C4000CDE9004653460A2249462846FFF7DCFE96
:108C5000A2E73B681A1D19783A602846FFF7BDFE67
:108C60009AE70A230BF1010BB2FBF3F2C1E7A3452C
:108C7000D4D220212846013CFFF7AFFECCE7710794
:108C8000D5D52B21D0E7A345DAD230212846013CA7
:108C9000FFF7A3FED2E73968CDE900460A1D3A6026
:108CA00053460A220968D0E739680A1D3A60CDE9BF
:108CB000004653461022F5E73B681A1D3A6016F04D
:108CC0000106D3F8009028D1B9F1000F03D048462F
:108CD00004F09EFA0646B44200D904BB09F1FF39FC
:108CE00019F8011F00293FF457AF2846FFF775FE1A
:108CF000F6E728460136FFF770FE19F8061000293E
:108D0000F7D1A642BFF448AF002C3FF445AF202175
:108D10002846013CFFF761FEF3E70026EDE720213E
:108D20002846013CFFF759FED5E73B681A1D3A601B
:108D3000302128461C68FFF750FE78212846FFF7AF
:108D40004CFE00220823CDE90032214610227CE7A8
:108D500003B0BDE8F08F00BF2DE9F84FB0F806A0D2
:108D60004579D2F800B09DF828900AFB05F5043D3E
:108D700088460BEB0301A94203F1040488BFA5EB6D
:108D8000030BB4FBFAF607460AFB1644C2F800B020
:108D90004EB9AAEB04055D4528BF5D46BBF1000F47
:108DA00004D1BDE8F88F3F68013EF1E7043408EBD9
:108DB00006003C442A46B9F1000F0DD02146ABEB2A
:108DC000050B04F0C9F9DA452E443F6855464FF0CB
:108DD000000428BF5D46E1E701462046EFE7FFF7C4
:108DE0008EBDF8B546790146721E054600239342B2
:108DF0002D6803D30024A64202D8F8BD0133F6E75C
:108E00000F682846FFF7B6FD01343946F3E72DE930
:108E1000F843068ACD1C0746FFF788FD043E35441B
:108E20000446B5FBF6F5F0B14FF48073EDB28380E4
:108E3000C680013D076081464FF00008A84512D268
:108E40003846FFF773FD064648B163790133637115
:108E500008F10108C9F8000007608146EEE72046E6
:108E6000FFF7BFFF34462046BDE8F88301210430F8
:108E7000FFF727BD10B5012104460430FFF72DFD93
:108E800010F0FF0F04D12046BDE81040FFF7A9BF46
:108E900010BD1FB503920022009203AAFFF75CFFEA
:108EA00005B05DF804FB1FB503920122009203AAEE
:108EB000FFF752FF05B05DF804FB41DF704700008B
:108EC000064B10B500241C70054B1C60BFF35F8F70
:108ED0000449054800F039F8204610BD342A002026
:108EE000382A002040D502002C2A002007B5002394
:108EF0000DF107008DF80730FFF798FAF1EE103A00
:108F000023F09F03E1EE103ABFF35F8F094B40223D
:108F1000C3F884219DF80700FFF7ACFA03F00EFFB9
:108F200020B1FFF7CAFF03B05DF804FB20BF40BFCC
:108F300020BFF8E700E100E0836800225A60C3E93F
:108F400004229A60DA601A6070470B684A684360CE
:108F5000934208BF0023016008BF43607047436825
:108F600043B10268916852680B449342436004BF66
:108F700000234360704770B5446806460D4620687C
:108F800018B1B3682946984718B923682B60256043
:108F900070BD2468F3E74368186808B102681A6076
:108FA00070474368186870474368186800B970478D
:108FB000884203D102681A600120704703460068A6
:108FC000F4E7000010B50D49A1F59472914201D863
:108FD00000200FE08C1AE30F03EBE4035B1002EBBD
:108FE000C30452F83330834205D802D204F1080298
:108FF000ECE7606810BD2146E8E700BF4CDA0200EC
:1090000008B5FFF7DFFF024B002808BF184608BD70
:109010000FD902000A4B1B685A1C05BF094B0A4AAC
:109020000A4A10680ABF1B781068C0F30310082BA7
:1090300004D103288CBF0020012070470020704716
:1090400030010010E00F00F0E80F00F034010010D4
:10905000064B1B68082B06D1054B1B68032B02D857
:10906000044AD05C70470020704700BF30010010F8
:10907000340100104CDA020008B5FFF7CBFF40B115
:109080004FF080430022C3F80C21C3F81021C3F82D
:109090003825FFF7BFFF002846D04FF080525E4BC7
:1090A000D2F80414C3F82015D2F80814C3F8241514
:1090B000D2F80C14C3F82815D2F81014C3F82C15E4
:1090C000D2F81414C3F83015D2F81814C3F83415B4
:1090D000D2F81C14C3F84015D2F82014C3F8441574
:1090E000D2F82414C3F84815D2F82814C3F84C1544
:1090F000D2F82C14C3F85015D2F83014C3F8541514
:10910000D2F83414C3F86015D2F83814C3F86415D3
:10911000D2F83C14C3F86815D2F84014C3F86C15A3
:10912000D2F84424C3F87025FFF792FF10B13B4BEF
:109130003B4A1A60FFF78CFF18B13A4BFB22C3F889
:109140001825FFF785FF48B13749384B0A681B6877
:1091500022F00F0203F00F0313430B60FFF778FFB9
:1091600018B1334B4FF400721A60FFF753FF48B148
:109170004FF08043D3F80024D20744BF6FF00102C0
:10918000C3F800242B4AD2F8883043F47003C2F8A5
:109190008830BFF34F8FBFF36F8F4FF01023D3F89A
:1091A0000022002A03DBD3F80432002B2FDA224BF3
:1091B0000122C3F80425D3F80024002AFBD04FF085
:1091C00010221221C2F80012D3F80024002AFBD08A
:1091D0004FF010231222C3F80422174B1A46D3F87B
:1091E00000140029FBD00021C3F80415D2F8003484
:1091F000002BFBD0BFF34F8F0E49104BCA6802F40F
:10920000E0621343CB60BFF34F8F00BFFDE70C4B11
:109210000C4A1A6008BD00BF00C000408C560040D8
:109220004881030000F00040E40E004058020010A6
:109230004096024000ED00E000E001400400FA0525
:10924000242300200090D003074B1B5C1F2B86BFFC
:10925000064903F01F034FF0A041012202FA03F375
:10926000C1F80C35704700BF50DA0200000300500F
:10927000074B1B5C1F2B86BF064903F01F034FF0F3
:10928000A041012202FA03F3C1F80835704700BF7C
:1092900050DA02000003005008B50020FFF7E8FF95
:1092A0000120FFF7E5FF0220FFF7E2FFBDE80840DD
:1092B0000320FFF7DDBFC20710B504460CD54FF001
:1092C000A0430322C3F83427C3F83827C3F83C2748
:1092D000C3F84027FFF7E0FFA3070AD54FF0A043EC
:1092E0000C22C3F82C27C3F83027C3F86027C3F833
:1092F000642710BD38B5074C051E04F1080318BFDC
:109300001C4623682BB11A6822605B682846984780
:10931000F7E738BD442A002020B9054B01225A70D6
:10932000FFF7E8BF012802D1014A9070F8E77047C3
:109330003C2A002020B9034B01225A70FFF7DABF04
:10934000704700BF3C2A002038B50E4C2378B3B9D3
:109350000D486360A3602361E36000F0E5F8054613
:1093600003F0ECFC08B900F0EBF801232370074B85
:10937000D3F800340BB10123A370284638BD8525EE
:10938000F5E700BF3C2A00201993020000000140CD
:1093900037B50D4C00230DF107008DF80730FFF7AE
:1093A00045F8E368013BE360E36833B9074BD3F862
:1093B000005415B900F0D6F8A5709DF80700FFF726
:1093C00059F803B030BD00BF3C2A00200000014026
:1093D000012813B50CD0032820D038B9124B012234
:1093E000C3F88020BFF34F8FBFF36F8F02B010BD63
:1093F0000E4C00230DF107008DF80730FFF716F82B
:1094000023780BB9FFF7A0FFE3689DF8070001334D
:10941000E3600123A370FFF72DF8E7E700F090F871
:10942000FFF7B6FFE2E700BF00E100E03C2A0020C2
:109430001FB503788DF800304368019383688DF879
:109440000830C368054A0393054B684653F821303A
:1094500052F82110984705B05DF804FB502A00200F
:10946000582A00201FB503788DF800304368019317
:1094700083688DF80830C368054A0393054B684636
:1094800053F8213052F82110984705B05DF804FBDD
:10949000502A0020582A0020F0B5194B90F800C03F
:1094A000DFF86CE043F82C20164B16460A6943F8A7
:1094B0002C204B7F0EF80C300C4607460FCC89B0A1
:1094C0006D460FC594E80F0085E80F001EF80C30BC
:1094D000CDF810C04BB1002E0B4A694608BF32468A
:1094E000381D00F00BFE09B0F0BD002E074A69469A
:1094F00008BF324607F10C0000F0D8FBF3E700BFCD
:10950000582A0020502A002031940200659402005D
:10951000602A002000F18040002382B003600368CD
:109520000193019B02B07047044A137923B90121CA
:10953000106091801846704785207047642A00208B
:10954000074B1A68D20704D4C02283F800230122F3
:109550001A604FF080430122C3F81825704700BFFE
:1095600000E100E04FF0804208B50223C2F8083362
:109570004FF48270FFF7CEFF034B01211960D2F840
:109580001834DB03FBD408BD0C000040124B1B68F1
:1095900010B573B14FF48070FFF7BCFF4FF08043FC
:1095A0000122C3F808230D4B587910B95A711B6872
:1095B00098470B4B1B6873B14FF48270FFF7AAFFFB
:1095C0004FF080430222C3F80823044BBDE810404B
:1095D0001B680120184710BD00010040642A0020CC
:1095E0000401004000F1804000F5C040002382B03B
:1095F000036003680193019B02B0704703681F2B4F
:1096000083BF03F01F03036001484FF0A040704781
:109610000003005007B5019001A8FFF7EFFF019B81
:1096200000EB8300D0F8003723F44033C0F8003754
:10963000D0F8003743EA0141C0F8001703B05DF8E5
:1096400004FB0000054B4FF0FF32072843F82020B1
:1096500084BFC01880F85820704700BF6C2A0020D3
:1096600038B51E4C94F86A30ABBB4FF6FF71FF2043
:109670005A09012A14BF4FF0FF320A4603F01F05B2
:10968000EA40D20748BFE21803F1010348BF82F85D
:109690003000302BECD10021C8B2FFF7D3FF0131ED
:1096A0000C29F9D1062200210D4803F07EFD0D4B57
:1096B000C02283F8062340221A604FF4BE70FFF7E1
:1096C00091FF094B4FF00042C3F80423012384F8B3
:1096D0006A30002038BD0820FCE700BF6C2A00205B
:1096E000D02A002000E100E000600040034B93F826
:1096F0006A00003818BF0120704700BF6C2A0020A4
:10970000F7B53B4E3318054693F93030002B6CDA31
:109710008B78C3F34003002B0BBF082400240C20DC
:109720000820844202D1042003B0F0BD56F8247012
:10973000013743D1701946F8242080F8304013B91E
:10974000331983F858508B785A0717D4D80737D570
:1097500001A80195FFF752FF019B00EB8300D0F8B1
:10976000003723F00203C0F800372248EA0805F06A
:1097700007070123BB40875C3B4383548B780A78FF
:1097800013F0020328D0A40004F1804404F5C0447F
:109790002D02D4F8103523F44F3323F44073C4F86A
:1097A00010351204D4F8103505F47C5502F440321B
:1097B00015431D43C4F810550020B5E70134B0E748
:1097C00001A84A780195FFF719FF019B03F5E073A3
:1097D000920040F82320C8E7083C344494F86050D5
:1097E00045EA821284F86020E6E708209CE700BF83
:1097F0006C2A0020D02A002073B5224C261805467A
:1098000096F93020072A1ADD224492F858309B0935
:10981000032B0FD1019001A8FFF7F0FE019BD0F8B8
:109820001015D94001F0010102312846FFF7F2FE80
:1098300002B070BD012B0CBF02210321F5E7D3B2AA
:10984000072BF5D8930003F1804303F5C043D3F809
:10985000100540F00100C3F8100502F1400080003F
:1098600080B2FFF7BFFE0029E2D096F9303054F8FD
:109870002330002BDCD0012303FA02F2024BC3F8A1
:109880000423D5E76C2A0020006000400E4B0344FF
:1098900093F93020072A02DD0021FFF7BBBED3B2C7
:1098A000072B10D8930003F1804303F5C043D3F88E
:1098B000101521F00101C3F81015012303FA02F27B
:1098C000024BC3F8082370476C2A00200060004058
:1098D00007B5019001A8FFF791FE019BD0F8100594
:1098E000D84000F0010003B05DF804FB2DE9FF470C
:1098F0000024CDE90244584D4FF48072012102F159
:10990000804303F5C04390B21B68012B06D1D5F804
:1099100004330B4202D0FFF765FE0C430432B2F56C
:10992000907F4FEA4101EAD14C4B1B68012B11D1CA
:109930004FF4BE70FFF756FE4FF0A04344F00044D2
:10994000D3F820250292C3F82025D3F820280392CB
:10995000C3F8202814F0FF0F1AD0414F002501262C
:10996000344210D0AB0003F1804303F5C043D3F879
:109970001005D3F8101557F8253023B1C1F3014174
:10998000C0F3052098470135082D4FEA4606E7D178
:10999000002C59DA324D334C334E4FF0000801277A
:1099A00016F9013B5A1C3CD0C3F3C20104A8014480
:1099B0005FFA83F911F8081C03F03F0203F0070374
:1099C00007FA03F319422CD001A80192FFF716FE03
:1099D000019B03F5E07350F82330C3F3014ABAF159
:1099E000020F10460CBF03210221FFF713FE01A84E
:1099F0000192FFF703FE019B07FA03F3C0F820353D
:109A0000AB1893F9303055F8233053B14FEA991120
:109A1000032904D0BAF1020F19D1012901D110464E
:109A2000984708F10108B8F1040FB9D14FF0A043ED
:109A3000D3F820250292C3F82025D4F820350393CB
:109A4000C4F820351343A7D104B0BDE8F087BAF1BC
:109A5000030FE6D10229E1E7006000407C6100408D
:109A60006C2A002000030050CC2A0020014B1B6808
:109A7000184700BFD82A00200E4B984237B50C4635
:109A800002D0002003B030BD00230DF107008DF897
:109A90000730FEF7CBFC084B1D7915B901221C607D
:109AA0001A719DF80700FEF7E5FC002DE9D01120A2
:109AB000E8E700BF00200040D82A0020034B98426E
:109AC00001BF034B00221A601A717047002000404A
:109AD000D82A00200023435082B043580193019BB1
:109AE00002B070470A4610B54FF48E71FFF7F2FFCF
:109AF000136A9168C95C136A01331362C0F81C15BC
:109B000010BD8B690A4610B54FF4847123B9FFF775
:109B1000E1FFD0F8183510BDFFF7DCFF536AD168BC
:109B2000D0F81805C854536A01335362F3E70000B4
:109B30001FB501238DF80030044BCDE90110D3E9A6
:109B400000126846904705B05DF804FBE02A00204B
:109B500030B54C48D0F8043313F4007F85B0054687
:109B60004DD0D0F82431002B49D04FF49271FFF73B
:109B7000B1FF4FF40173C0F80833434B93F8292029
:109B80000AB9012242603F4902228DF80020D1F833
:109B90008024C1F8802403929A690292DA680192C3
:109BA0000022C3E906226846D3E9001290473548EF
:109BB000D0F81C315BB134494A690B6A9A420A46B3
:109BC0004AD991F82830002B46D1FFF78BFF2D485A
:109BD000D0F844318BB14FF4A271FFF77BFF2A4BD1
:109BE00093F829200AB1012202609A692AB1002261
:109BF000586AD9689A61FFF79BFF05B030BDD5F868
:109C000004335B07D3D5D5F80831002BCFD01E4CD9
:109C10001C482146FFF775FF636AA2699A422346F2
:109C2000C5D1E269E1684AB12369E3600023606A53
:109C3000A261E3616362FFF77BFFB8E794F8292034
:109C40000AB901226A600F4A4FF40170C2F8080392
:109C50000022586A9A61EEE70A484FF48E71FFF7C6
:109C600039FF5369002BB2D05169029100239168EA
:109C70008DF80030019153616846D2E9001398478E
:109C8000A5E700BF00200040E02A00201F2886BF73
:109C900000F01F00044B4FF0A04300F5E0700222DB
:109CA00043F82020704700BF000300502DE9F8431F
:109CB000614B057991462C2202FB0532064692F84B
:109CC0002A200C469846002A40F0B1805B49006883
:109CD000FFF7D2FE0746002840F0AB8021684A1CFF
:109CE00010D01F2987BF564A01F01F030B464FF0C3
:109CF000A0420120984003F5E073C2F80805032054
:109D000042F823006068431C0DD01F288BBF00F071
:109D10001F0303464A4A4FF0A04203F5E0734FF099
:109D2000000C42F823C03368A269C3F8242594F8D4
:109D300014C0627DBCF1010F4CEA0202C3F86C252D
:109D4000C3F81405C3F80C152BD1A168481C0DD01D
:109D50001F298BBF01F01F020A4639484FF0A0406F
:109D600002F5E0724FF0000C40F822C0E068421C9F
:109D700013D01F2887BF324A00F01F0C84464FF0D3
:109D8000A0424FF0010E0EFA0CFE0CF5E07CC2F87A
:109D900008E54FF0030E42F82CE0C3F80805C3F8BD
:109DA00010152C236B4308EB0302C2F804902269C0
:109DB00048F80320B9F1000F21D03068247F4FF418
:109DC0008E71FFF787FE4FF4A2713068FFF782FEB5
:109DD00032681C4BC2F80433110B42F307326301A3
:109DE000002ADBB21EDB1848841884F800330123F4
:109DF000520901F01F0103FA01F140F82210336803
:109E00000422C3F800252C2303FB05830022C3E9A9
:109E1000062283F829205A61012283F82A20384635
:109E2000BDE8F883094A01F00F015354E7E708271A
:109E3000F5E71127F3E700BFE02A0020519B02005D
:109E4000000300508000020000E100E014ED00E09B
:109E50002DE9F04103680479284D0022C3F800255C
:109E60002C2202FB045201465268A2B1244AC3F8D4
:109E700008231A0B43F30733002B0CDB02F01F00FF
:109E80005B090122824020331E4840F82320BFF3A3
:109E90004F8FBFF36F8F0B68D3F80C05D3F8148581
:109EA000D3F80865D3F810754FF0FF329042C3F82D
:109EB0001425C3F80C25C3F80825C3F8102501D0D4
:109EC000FFF7E4FEB8F1FF3F02D04046FFF7DEFEA9
:109ED0007A1C02D03846FFF7D9FE731C02D03046F8
:109EE000FFF7D4FE0868FFF7E9FD2C2303FB0454B9
:109EF000002384F82A306360BDE8F081E02A002066
:109F00008402020000E100E02DE9F047204F90F8C4
:109F100004904FF02C0808FB097405466669002E72
:109F200034D162610068A16026624FF48E7184F8BA
:109F30002860FFF7CFFD2868012383602146FFF7E3
:109F4000D1FD6368A0468BB92868D4F814A0236AB1
:109F50009A4511D82A68D2F81C31002BFBD0012376
:109F6000D3602C2303FB097300225A613046BDE8FD
:109F7000F08794F828303BB9D0F81C31002BF8D08A
:109F80004146FFF7AFFDE2E70F26EAE71126EDE7CE
:109F9000E02A00200023435082B043580193019BE4
:109FA00002B070471FB501238DF80030044BCDE996
:109FB0000110D3E900126846904705B05DF804FB34
:109FC0000C2B00201F2886BF00F01F00044B4FF011
:109FD000A04300F5E070022243F82020704700BF44
:109FE000000300507FB5434AD2F82461002E60D0B0
:109FF00010464FF49271FFF7CDFF02238DF8003029
:10A00000D2F88034C2F880340393D2F83C350293FE
:10A01000394BDA6801920022C3E906226846D3E987
:10A02000001290473348D0F8443173B14FF4A27115
:10A03000FFF7B0FF304B9A693AB10022C3E906221C
:10A04000D968D0F83C05FFF7ADFF2A48D0F8203199
:10A05000ABB14FF49071FFF79DFF0123C360264B16
:10A060005A6962B1D0F84C150291002299688DF8B6
:10A07000002001915A616846D3E9001290471D48BB
:10A08000D0F858319BB14FF4AC71FFF783FF1A4BF6
:10A090005A6962B1D0F84C150291002299688DF886
:10A0A000002001915A616846D3E90012904704B03C
:10A0B00070BDD2F81031002BB4D04FF48871104627
:10A0C000FFF768FF0C4BD2F83C0599698842A9D18B
:10A0D000DC69D96864B1D2F8005225F02005C2F8D5
:10A0E00000521A699C61DA60DE61FFF75BFF99E755
:10A0F0009C61FAE7002000400C2B00202DE9F8437A
:10A10000674B06799146242202FB0632044692F8F8
:10A1100020200D469846002A40F0BE806149006824
:10A12000FFF7AAFC0746002840F0B8802868421CC8
:10A1300010D01F2887BF5C4A00F01F0303464FF072
:10A14000A0420121994003F5E073C2F808150321EC
:10A1500042F8231069684B1C0DD01F298BBF01F0FA
:10A160001F030B46504A4FF0A04203F5E0734FF037
:10A17000000C42F823C02368AA69C3F8242595F887
:10A1800014C06A7DBCF1010F4CEA0202C3F86C25D1
:10A19000C3F80C05C3F814152BD1A968481C0DD0C1
:10A1A0001F298BBF01F01F020A463F484FF0A04015
:10A1B00002F5E0724FF0000C40F822C0E868421C43
:10A1C00013D01F2887BF384A00F01F0C84464FF079
:10A1D000A0424FF0010E0EFA0CFE0CF5E07CC2F826
:10A1E00008E54FF0030E42F82CE0C3F80805C3F869
:10A1F00010152423734308EB0302C2F804902A6964
:10A2000048F80320B9F1000F30D020682A7F4FF4BE
:10A210008871FFF7BFFE20684FF49071FFF7BAFE18
:10A2200020684FF49271FFF7B5FE20684FF4A271D9
:10A23000FFF7B0FE4FF4AC712068FFF7ABFE236868
:10A240001A49C3F80413190B43F307335201002BC7
:10A25000D2B21CDB1648C51885F8002301225B0921
:10A2600001F01F0102FA01F140F8231023680822CF
:10A27000C3F80025242303FB06830022C3E906223A
:10A280005A61012283F820203846BDE8F883094B43
:10A2900001F00F015A54E9E70827F5E71127F3E722
:10A2A0000C2B0020E59F0200000300501003420029
:10A2B00000E100E014ED00E02DE9F0413D4E0579AC
:10A2C0000468242303FB056302465B68ABB13A4B89
:10A2D000C4F8083344F30733002B4FEA14310CDB86
:10A2E00001F01F005B09012181402033334840F811
:10A2F0002310BFF34F8FBFF36F8FD4F8003223F0DA
:10A300002003C4F80032242303FB05639B6933B1A7
:10A310004FF4A2712046FFF73DFE012363604FF426
:10A32000AC712046FFF736FE0123E360242303FBD4
:10A330000563D4F858110029FBD0996919B1D4F8F4
:10A3400044110029F5D00023C4F800351368D3F870
:10A350000C05D3F81485D3F80815D3F810754FF011
:10A36000FF329042C3F80C25C3F81425C3F8082522
:10A37000C3F8102501D0FFF725FEB8F1FF3F02D04A
:10A380004046FFF71FFE7A1C02D03846FFF71AFE40
:10A390004B1C02D00846FFF715FE2046FFF78EFB48
:10A3A000242303FB0565002385F820306B60BDE89E
:10A3B000F08100BF0C2B00201003420000E100E000
:10A3C00001F06043B3F1005F2DE9F041064638D15A
:10A3D0001E4B0779242505FB073598466C69002C30
:10A3E00031D16A610068A9604FF49071FFF7D2FD26
:10A3F0004FF4AC713068FFF7CDFD33686A69A96826
:10A40000C3F84415C3F8482501229A606A68AAB9BE
:10A41000D3F82021D3F858411AB9002CF8D00F24D2
:10A4200007E0002CFBD10122DA60D3F85821002A82
:10A43000FBD0242303FB078700237B612046BDE874
:10A44000F0811024FAE71124F8E700BF0C2B00205C
:10A450000023435082B043580193019B02B07047E0
:10A4600038B51D4602230B710B684A7104467BB157
:10A4700012F0040F0CBF82219221100748BF41F057
:10A480002001D306236848BF21F08001C3F80013E0
:10A4900020684FF48271FFF7DBFF206812F0800F15
:10A4A00005BF012343514019002038BD2DE9F04F6D
:10A4B000544D077905EBC70385B01B7906460C465A
:10A4C0004FEAC70A002B40F09B8045F83720DFF8A1
:10A4D00040E101F1FF3C04F1030B69464FF0010834
:10A4E0001CF8012FFF2A00F0828022F08003100662
:10A4F0000B606FD51F2B87BF02F01F00F146184677
:10A500004FF0A04908FA00F0C9F808051F2B8ABFD0
:10A5100002F01F034FF0A042724603F5E0730320E0
:10A5200042F82300DC4501F10401D9D13068009BD9
:10A53000C0F86035019BC0F86435029BC0F86835EF
:10A540000122039BC0F86C35C0F8002594F805C0C3
:10A55000A1792389C0F80CC5C0F80415C0F80835E6
:10A560006389C0F810350023C0F800324FF48E71B3
:10A57000C0F80033FFF76CFF30684FF48871FFF7C5
:10A5800067FF30684FF48A71FFF762FF30684FF45D
:10A590008271FFF75DFF55F83730A3B13368217939
:10A5A00043F3073049010028C3F30733C9B222DB64
:10A5B000154C261886F80013400903F01F0302FA11
:10A5C00003F344F82030554401232B71002005B0DB
:10A5D000BDE8F08F1F2B87BF02F01F00F146184621
:10A5E0004FF0A04908FA00F0C9F80C058EE74FF0CB
:10A5F000FF330B6096E7054A03F00F03D154E2E7FF
:10A600000820E4E7302B002000E100E014ED00E03A
:10A6100000030050F0B50E461D461C49037904683E
:10A62000D6F800E0B6F804C0B768C4F820E501EB3E
:10A63000C301F368C4F824C5C4F82875C4F82C35E0
:10A64000C4F840E5C4F844C5C4F84875C4F84C35AE
:10A6500002F0010303EB5202C4F81425EA0712D4F6
:10A6600015F0020203D0002B14BF08220422002B95
:10A67000C4F8002218BF0C23EAB208BF0823BDE8C3
:10A68000F040FFF7EDBE1022F1E700BF302B0020B5
:10A690002148D0F8103110B55BB14FF48871FFF745
:10A6A000D7FE1E4B5A79510703D51B680BB1012009
:10A6B00098471948D0F814315BB14FF48A71FFF70D
:10A6C000C7FE164B5A79120703D51B680BB102203F
:10A6D00098471148D0F81C315BB14FF48E71FFF7E9
:10A6E000B7FE0E4B587910F0100002D11B6803B171
:10A6F00098470948D0F8043163B14FF48271FFF7ED
:10A70000A7FE064B01221A711B681BB1BDE8104061
:10A710000320184710BD00BF00C00140302B0020AF
:10A7200000F1804000F5E040002382B00360036840
:10A730000193019B02B07047F0B5504B504C1B6821
:10A7400085B0002B3DD04FF4827094F82E20FFF797
:10A75000E7FF2AB394F82F3013BB4A4B1B68002B3A
:10A7600033D04FF48070FFF7DBFF638B94F82D102C
:10A770008B424FD922895B1A9BB292B26383D31A60
:10A78000626802EB4303404AC2F82C36C2F8301626
:10A790004FF48270FFF7C4FF3C4B01221A6014E0B3
:10A7A000636802932389ADF80C30E36800218DF8CB
:10A7B000041023BB2374236801A89847002384F85E
:10A7C0002F3094F82E30002BC7D1314B1B685BB172
:10A7D0004FF48870FFF7A4FF0023237402238DF841
:10A7E000043001A8236898472A4B1B68EBB14FF44B
:10A7F0008A70FFF795FF0023237405B0F0BD208B0E
:10A80000608363602081E160002AD4D11E4B012265
:10A810001A60D0E7BCD1E368012284F82F2013B17D
:10A8200000226283AFE76383B2E766694FF00047B7
:10A830000125002EE1D0B6FA86F227FA02F346325D
:10A84000920026EA030602F1804303F5E0431B6809
:10A85000002BEED01046FFF763FFA2F58C72D308F1
:10A8600082F00402C2F380028DF808308DF80450A3
:10A8700023688DF8092001A89847DAE704710040A1
:10A88000382B002000710040007000400470004030
:10A89000107100401471004038B5204A92F82C30F5
:10A8A0000446002B37D111601D490078C1F8F0052E
:10A8B0006078C1F8F4050125137482F82D305361D6
:10A8C00082F82F30E07882F82E006FF0004382F893
:10A8D0002C504FF48270C1F80833FFF721FF4FF47A
:10A8E0008070FFF71DFF4FF48A70FFF719FFA37800
:10A8F0000C485B01DBB280F807338023036002233E
:10A90000C1F8043392F82E300BB1C1F80453C1F8EA
:10A910000055002038BD0820FCE700BF382B002080
:10A920000070004000E100E030B5224B1A7C002AA4
:10A930003ED100F10C0403EB4402127922B993F8E2
:10A940002D20013283F82D2003EB4403CA790C7AC1
:10A950008D781A715C714B782D021B0105F4E0654E
:10A9600003F030032B430D7805F003052B43CD781E
:10A970002D0305F480552B430D792D0405F4E025B6
:10A980002B434D7989792D0505F48015090601F0D1
:10A9900080712B430B43010101F1804101F5E0413E
:10A9A0000020C1F81835C1F81445C1F8102530BD94
:10A9B0001120FCE7382B002070B5344A147C04F0D9
:10A9C000FF03002C5FD1324C012503261574C4F817
:10A9D0000863C4F82C16C4F8305692F82D10A9421A
:10A9E0000CD91C46190101F1804101F5E041013308
:10A9F000082BC1F81445C1F81045F3D100F10C0340
:10AA0000000102EB430300F1804000F5E0401979BA
:10AA10005B79C0F81435C0F810151D4901230B608F
:10AA20004B6042F2107301F58271086808B9013B6E
:10AA3000FBD14FF48070FFF773FE4FF48270FFF785
:10AA40006FFE92F82D30012B11D9104800210B0117
:10AA500003F1804303F5E0430131047F457FC3F8F0
:10AA600014550829C3F8104500F10200EFD192F8FF
:10AA70002E10074B29B103210020C3F804131074D2
:10AA800070BD0221F8E71120FAE700BF382B002043
:10AA9000007000401FB503788DF800308388ADF852
:10AAA000043083688DF80630C3688DF80730036979
:10AAB00002934369054A0393054B684653F82130D6
:10AAC00052F82110984705B05DF804FB682B002070
:10AAD000702B0020024B4FF4807043F001031847A5
:10AAE00090DA02001F2886BF054A00F01F004FF0D1
:10AAF000A042012303FA00F0C2F80805704700BF26
:10AB0000000300502DE9F047154690F80080394ABF
:10AB100042F82850384A42F828304B7B06460C460B
:10AB2000A3B30868DFF8D8904FF0A04100F5E073B8
:10AB300040F20C6241F82320636803F5E0730027BC
:10AB400041F82320FFF7CEFF6068FFF7CBFF2368B3
:10AB500003F5E07340F20D6241F82320636803F5CA
:10AB6000E0734FF0010A41F82320FFF7B3FF636859
:10AB70001F2B8ABF4A464FF0A04203F01F03D2F8B2
:10AB8000102522FA03F3DB070BD507BB002D1B4A68
:10AB9000434608BF2A462146301DBDE8F04700F075
:10ABA0000DBA23681F2B86BF03F01F034A464FF0E0
:10ABB000A0420AFA03F3C2F80C35FFF78BFF013706
:10ABC0002068FFF78FFFFFF785FF092FCFD163685C
:10ABD0001F2B86BF0A4903F01F034FF0A04101223B
:10ABE00002FA03F3C1F80C35FFF774FF6068FFF752
:10ABF00079FFCBE7702B0020682B002095AA02007C
:10AC0000000300500023435082B043580193019B3E
:10AC100002B070478B6A4A6B9A4210B54FF001033D
:10AC200005D2496A8A5CC0F81C251A4604E091F8EE
:10AC30002C201AB1C3610022104610BD0C6A6406B4
:10AC400003D5C36181F82D30F6E74361EDE770B5B8
:10AC5000D0F8046104460D4626B14FF48271FFF727
:10AC6000D1FF012695F82F2022B34FF49271204690
:10AC7000FFF7C8FF4FF48E71FFF7C4FF4FF48471E4
:10AC8000FFF7C0FF002E67D095F82F20002385F82E
:10AC90002D3082BBAB6A696B99421CBF16460523F7
:10ACA00086F001061CBFC4F80025C4F8003585F8FD
:10ACB0002F6021E0D4F824314BB14FF4927120463B
:10ACC000FFF7A0FF0123636185F82F30DAE7D4F89E
:10ACD0001C319BB14FF48E712046FFF793FF6B6BD5
:10ACE00001336B63D4F82431002BE6D12946FFF7FA
:10ACF00091FF0028C6D10022104670BDD4F808315B
:10AD0000002BBFD04FF484712046FFF77BFFD4F8AF
:10AD10002431002BD1D16B6BA96A8B42B2D2696A04
:10AD2000D4F81805C8546B6BA96A0133481E8342D6
:10AD30006B6308D1286A400610D40223C4F800329D
:10AD4000012323629EE78B42FAD12B6A5B0699D5D9
:10AD5000022385F82D30CFE70122CDE78B42EFD1DA
:10AD6000F6E7000037B5344B01930D464FF482717E
:10AD70000446FFF747FF4FF49271FFF743FF4FF48C
:10AD80008E71FFF73FFF4FF48471FFF73BFF002305
:10AD90006B6385F82F30AB6A012B17D12B6A5B06EA
:10ADA00014D40223C4F800320123236295F82D2025
:10ADB000022A18BF23602B6893B140F28623AB6050
:10ADC000AB68C4F80433002003B030BD0123E9E7C9
:10ADD00029462046FFF73BFF28B1019B013B019329
:10ADE000019B002BF4DC95F82F0050B9019B002B40
:10ADF000EADC0023C4F800350523C4F8003503203D
:10AE0000E2E7D4F8C434C4F8C43493B113F0010FAA
:10AE100014BF4FF40240032048F2012213F0020F46
:10AE200018BF104613F0040F48F2022318BF18464B
:10AE3000DCE70320DAE700BFA086010037B5314B1D
:10AE400001930D464FF482710446FFF7DBFE4FF489
:10AE50009271FFF7D7FE4FF48E71FFF7D3FE4FF4D8
:10AE60008471FFF7CFFE0023C0F800326B6385F8D2
:10AE70002F300123036295F82D209A4218BF83607A
:10AE80002946FFF7C7FE2B6883B140F28623AB60EB
:10AE9000AB68C4F80433002003B030BD2946204617
:10AEA000FFF7D5FE28B1019B013B0193019B002BCD
:10AEB000F4DC95F82F0050B9019B002BECDC00234B
:10AEC000C4F800350523C4F800350320E4E7D4F8BE
:10AED000C434C4F8C43493B113F0010F14BF4FF459
:10AEE0000240032048F2012213F0020F18BF10465F
:10AEF00013F0040F48F2022318BF1846DCE70320C2
:10AF0000DAE700BFA0860100F0B5294C294887B0D8
:10AF10002146FFF79CFEA446D8B994F82F60276A13
:10AF2000E6B9237B9A1E012A18D8616AA269914268
:10AF300014D1E2696262C7F3401762691D48A262D8
:10AF4000032B84F82C7084F82D60214603D1FFF781
:10AF500075FF07B0F0BDFFF705FFFAE7164D0FCDFF
:10AF600001AC0FC42B682360F6B1124AD2F8C43486
:10AF7000C2F8C43498070ED501238DF800300023A1
:10AF80008CF830307B0701D5002EE2D0DCE90031AF
:10AF900068469847DDE7590701D50223EDE7DA0750
:10AFA0004CBF03230423E8E78DF80060E7E700BF08
:10AFB000782B002000300040842B00202DE9F84F32
:10AFC00007793B4E4FF03C0A0AFB07FA06EB0A05ED
:10AFD0009B4695F82E3080460C469146002B62D158
:10AFE00034490068FEF748FD00285ED12168637B84
:10AFF00085F838301F298CBF01F01F030B46A8606D
:10B00000C5F804B085F8300085F82D0085F83100CA
:10B0100003F5E07288BF284D46F80A9098BF4FF0BC
:10B02000A04540F20C6345F8223062681F2A1D4695
:10B030008CBF02F01F03134603F5E0738CBFDFF8EB
:10B0400078C04FF0A04C4CF82350D8F80030C3F82B
:10B050000815C3F80C25A268C3F82425B9F1000F20
:10B0600014D0227B43F3073152010029C3F3073385
:10B07000D2B213DB114C651885F80023012249096F
:10B0800003F01F0302FA03F344F821303C2303FBCF
:10B090000766012386F82E30BDE8F88F084903F0D3
:10B0A0000F03CA54F2E70820F6E71120F4E700BFC7
:10B0B000782B002009AF02000003005000E100E0FF
:10B0C00014ED00E0026803790521C2F80015044A76
:10B0D0003C2101FB0323022283F82E20704700BF8E
:10B0E000782B002003680A490279C3F80813D3F8C3
:10B0F000001221F00301C3F800120021C3F800156B
:10B10000044B3C2101FB0233012283F82E207047BF
:10B1100086420400782B002070B50579234E3C232D
:10B120006B430446F35893B103681A0B43F3073398
:10B13000002B0CDB02F01F015B0901228A40203347
:10B140001B4941F82320BFF34F8FBFF36F8F204679
:10B15000FFF7C8FF2068FEF7B1FC3C2303FB056343
:10B1600093F83830DBB92168D1F808351F2B86BF3A
:10B1700003F01F030F484FF0A04003F5E0730222D5
:10B1800040F82320D1F80C351F2B86BF03F01F0396
:10B1900008494FF0A04103F5E07341F823203C2318
:10B1A00003FB0565002385F82E3070BD782B002049
:10B1B00000E100E0000300502DE9F047324E90F826
:10B1C0000480D0F800903C2303FB08630C4693F8FE
:10B1D0002D30012B174604D10B78012B06D1082006
:10B1E00011E0022B02D10B78012BF8D13C25274B23
:10B1F000C9F8083305FB086595F830302BB1AB680A
:10B20000C9F804331120BDE8F08787F00403C3F3C5
:10B21000800385F830302F62A646BEE80F0005F1A6
:10B220000C0CACE80F00DEF80030CCF8003063689E
:10B23000AB62E3686B626378C9F888352378C8EB42
:10B24000081A012B06EB8A0A19D0B3B9C7F34017C5
:10B250003C2303FB0863514683F82C704846FFF7F4
:10B26000EDFD3C2303FB08F806EB080256F8083016
:10B27000002BC8D182F83030C5E70127E8E75146F6
:10B280004846FFF76FFDECE7782B0020864204006C
:10B2900010B586B00024CDE902349DF820308DF839
:10B2A0000510A342CDE9042401A914BF202222469F
:10B2B0008DF80440FFF780FF06B010BD10B586B0D2
:10B2C000012402930023CDE903328DF805101A46BC
:10B2D00001A98DF804400593FFF76EFF06B010BD7D
:10B2E00072DF704773DF704776DF70477ADF704731
:10B2F0007CDF70477FDF70478FDF7047B1DF7047BB
:10B300007047FCF7A3BE000008B5064B0121187872
:10B31000FFF7E8FF08B1FCF799FEBDE80840002000
:10B32000FDF792BF402300200388212B13B504466C
:10B3300054D007D8112B30D0132B47D0102B0CD062
:10B3400002B010BD522B51D0562B01D03B2BF7D160
:10B35000A0881321FFF7C8FF1AE0284B2848294985
:10B36000C01AC008000440F00300FCF769FB01208C
:10B37000FDF76AFF0020FDF77BFF234BA1882348E0
:10B38000198001F04FFB08B1FCF760FEFCF71CFED2
:10B390000028D5D0FCF75AFED2E7184B18481C49B4
:10B3A000C01AC008000440F00300FCF749FB01206C
:10B3B000FDF75EFF144B4FF6FF721A80FCF71AFE82
:10B3C00008B1FCF743FEFFF79FFFB9E70E480023E3
:10B3D0001A4685210088FFF78DFFD9E7002301A9D0
:10B3E0008088ADF80430FFF787FFD1E706480023D7
:10B3F0001A4619460088FFF781FFC9E7D8D2020034
:10B4000020D302009ADA020042230020382C0020C8
:10B41000ABDA020008B503784BB9054B3B2118881D
:10B42000FFF762FF18B1BDE80840FCF70FBE08BD8A
:10B43000422300200B2807B51BD1124B1248019163
:10B44000C01AC0080004114940F00300FCF7F8FAE4
:10B450000F4B019A0F49188801F0C8FB30F0080221
:10B460000CD043F20202904208D043F201429042D3
:10B4700004D003B05DF804EBFCF7E8BD03B05DF861
:10B4800004FB00BFD8D2020020D30200BFDA0200C2
:10B4900042230020202C002010B50A4B0A4CE41A4D
:10B4A000E408240444F0030403203AB1FDF7CCFE81
:10B4B00006492046BDE81040FCF7C2BAFDF7D8FEA9
:10B4C0000349F6E7D8D2020020D30200E0DA0200F6
:10B4D000EFDA0200FCF7BABD1FB50C4A10685168DC
:10B4E000127A01AB03C30A490A481A70FFF7D4F96C
:10B4F00008B1FCF7ABFD01A90020FFF715FA08B170
:10B50000FCF7A4FD05B05DF804FB00BF1CDB0200E6
:10B5100001B3020032DB020070B50C2088B08DED63
:10B52000030ACDED020A8DED011A01F0CDFD0C22CA
:10B530000446002101F039FE261D03A904222046FD
:10B5400001F00AFE02A90422304601F005FE04F1D2
:10B55000080504220DEB0201284601F0FDFD2146FD
:10B56000094800F035FA2146042205A801F0F4FD4F
:10B570003146042206A801F0EFFD0422294607A85F
:10B5800001F0EAFD08B070BDB82B002080B54FF483
:10B590008041A6B00020FCF7BFF808B1FCF756FDCB
:10B5A000FBF7FAFF0120FDF786FEFCF711FE08B15C
:10B5B000FCF74CFD984840F233320121FCF7AEFC19
:10B5C00008B1FCF743FDFDF77BFC08B1FCF73EFD3D
:10B5D00001F076FB08B1FCF739FD002317A9012023
:10B5E000179301F0F5FB08B1FCF730FD17A801F047
:10B5F000A1FC08B1FCF72AFD112388488DF8203002
:10B6000001F006FE854982B208A8FFF771FE08B175
:10B61000FCF71CFD0822002117A801F0C6FD804A96
:10B620004FF0C87317A8CDE91723FFF75FFE08B1E5
:10B63000FCF70CFD7B48002101F0ECF808B1FCF7A9
:10B6400005FD0023CDE9173302937748774B089324
:10B6500008A901F0D5F908B1FCF7F8FC11238DF821
:10B6600061308DF862307248724B029302A901F08A
:10B670004FFA08B1FCF7EAFC6F4817A900F004F98B
:10B6800008B1FCF7E3FC41F22353ADF80430684BFA
:10B690006A4C9B7C8DF806303C22002108A801F002
:10B6A00084FD02238DF820303C2240F2016300210A
:10B6B00017A8ADF8223001F078FD22460123ADF83D
:10B6C0006C3052F8041B01AB08A81C9300F0F6FB89
:10B6D00008B1FCF7BBFC5A4AA16817A800F0EEFBC2
:10B6E00008B1FCF7B3FC1822002102A801F05DFDAF
:10B6F00000230122ADF8143003934FF480738DF8CA
:10B700000820ADF81C304D494E48402302AA04934E
:10B71000FFF7E6FD08B1FCF799FC1C22002117A8F1
:10B7200001F043FD00234FF4A022CDE91732ADF81C
:10B730006A304FF4A0328DF86C30434B19921C9351
:10B740000322424B8DF8682017A81D9300F07EFE5F
:10B7500008B1FCF77BFCFFF7BFFE3D4A106851685B
:10B7600017AB03C39068186000223A4817A9FEF788
:10B770009DFE08B1FCF76AFC374B384C4FF48062F1
:10B78000C3F8082540F20F12C3F82827322544F0E9
:10B7900001044FF47A40A047013DFAD12F212D201A
:10B7A00000F060FA2E4B2F482F49304E304FDFF813
:10B7B000C480C01AC008000440F00300FCF740F940
:10B7C000FFF7A2FD1422294617A801F0EEFC17A8E6
:10B7D00000F098FAFBF7F0FF08B9FDF787FB234963
:10B7E0000020FFF7E9F833883B800122022341461D
:10B7F0001848FEF70FFF9DED1B1ADDED1A0A9DEDAF
:10B80000190AFFF789FE4FF4FA754FF47A40A04702
:10B81000013DFAD1DBE700BF28230020FFDA020058
:10B820005000A0000C2C0020382C002003B3020094
:10B83000202C002099B40200B82B002030230020D7
:10B840003C2300204023002015B40200D5B40200A0
:10B8500026DB0200442300200003005040DB0200EE
:10B86000D8D2020020D302000DDB0200B42B00204E
:10B870004C23002048DB0200A8DF7047AADF704796
:10B88000ACDF704762DF7047F0B50E4697B00546F3
:10B89000002800F09080002900F08D804FF6FF73A3
:10B8A000C381464B06AA03F1100C17461868596865
:10B8B000144603C4083363452246F7D105F110014D
:10B8C0003846FFF7DFFF0446002871D12B7C8DF846
:10B8D00012302A1D4FF4A05304A90120ADF81030F6
:10B8E000FFF7CAFF0446002862D10146032202A8DE
:10B8F00001F05BFC41F21113ADF808309DF80A30FD
:10B90000012262F3420321461C220FA88DF80A305F
:10B9100001F04BFC9DF83C30109423F01A0343F0E7
:10B92000020303AF21468DF83C30032202AB3846B8
:10B93000CDE91434CDE9124401F037FCB3798DF828
:10B940000C30F3798DF80D309DF80E3023F01F0385
:10B9500043F002038DF80E302B7C8DF81630214613
:10B9600041F2014314220AA8ADF8143001F01DFC85
:10B9700005ABCDE90A370C230C93ADF83430A88819
:10B98000AB1D0AAA0FA9FFF779FF044680B10C4B43
:10B990000C480D49C01AC008000440F003002246BC
:10B9A0000190FCF751F8094901980722FCF74CF87F
:10B9B000204617B0F0BD0E24FAE700BF9DDB020061
:10B9C000D8D2020020D3020058DB020065DB02005F
:10B9D00037B50F4B04460F481B1ADB081B040D46F6
:10B9E00043F003000C49FCF72BF874B10822002146
:10B9F000684601F0DAFB0C23E188E0896A46CDE96C
:10BA00000035FFF73DFF03B030BD0E20FBE700BF60
:10BA100020D30200D8D2020081DB02001FB5002330
:10BA20008DF80C008DF80D1000930648022303AA30
:10BA30004C21FFF72DFC08B1FCF708FB05B05DF8C1
:10BA400004FB00BFE0DB020030B585B001230C46EB
:10BA500015468DF80F00009309480DF10F024C2197
:10BA6000FFF716FC08B1FCF7F1FA05482B46224611
:10BA70004C21FFF723FC08B1FCF7E8FA05B030BD14
:10BA8000E0DB020007B5002301220DF107018DF86C
:10BA90000730FFF7D9FF9DF8070003B05DF804FBFE
:10BAA00038B5054D044645F001054FF47A40A847E6
:10BAB000013CFAD138BD00BFF0DB020008B501211E
:10BAC0001020FFF7ABFF0A20FFF7EAFF40212420F8
:10BAD000FFF7A4FF3220FFF7E3FF00210920FFF763
:10BAE0009DFF0A20FFF7DCFF42210F20FFF796FFA2
:10BAF0000A20FFF7D5FF01212020FFF78FFF0A2042
:10BB0000FFF7CEFF80212120FFF788FF0A20FFF7F3
:10BB1000C7FF00212820FFF781FF0A20FFF7C0FFA1
:10BB200000211A20FFF77AFF3220FFF7B9FF0D201E
:10BB3000FFF7A8FF00F03F0040F040010D20FFF7A5
:10BB40006DFF3220FFF7ACFF10200121FFF766FFE9
:10BB5000BDE808400A20FFF7A3BF10B50446102037
:10BB6000FFF790FF00F0F0031C4342210F20FFF786
:10BB700055FF21461020BDE81040FFF74FBF0000E1
:10BB80000A4B10B5187004460120FFF7E6FF152098
:10BB9000FFF778FF240104F0700400F0070044EA86
:10BBA0000001BDE810401520FFF738BF442C0020ED
:10BBB000094B10B5044618700120FFF7CEFF152081
:10BBC000FFF760FF00F0700044EA0001BDE810409C
:10BBD0001520FFF723BF00BF452C002007B50190BB
:10BBE0000120FFF7BAFF1120FFF74CFF0199112048
:10BBF00003B05DF804EBFFF711BF07B5019001201A
:10BC0000FFF7ABFF1220FFF73DFF0199122003B0B1
:10BC10005DF804EBFFF702BF10B5012104462020B8
:10BC2000FFF7FCFE2120FFF72DFF00F03F0141EA66
:10BC30008411C9B2BDE810402120FFF7EFBE10B556
:10BC4000002104462020FFF7E9FE2120FFF71AFF1C
:10BC500000F03F0141EA8411C9B2BDE81040212043
:10BC6000FFF7DCBE1FB54FF0CC7300240293022314
:10BC7000CDE900018DF80C302048ADF80D40234689
:10BC8000224669468DF80F40FEF73CFF58B11C482C
:10BC9000FFF742FA1948234622466946FEF732FF6B
:10BCA00008B1FCF7D3F91648FFF70CFAFFF706FFC7
:10BCB0000120FFF752FF0220FFF7AEFF0220FFF73F
:10BCC000BEFF1820FFF7DEFE712814D10220FFF717
:10BCD00057FF0520FFF76CFF0020FFF77FFF0820CC
:10BCE000FFF78BFF0520FFF738FF3220FFF7D8FE64
:10BCF000012004B010BD0020FBE700BFDCDB020028
:10BD0000E0DB0200F0B52D4C274606460FCF8FB082
:10BD100003AD0FC514343B682B600FCC08AD0FC5C5
:10BD200094E80300062285E8030001A90220FFF73A
:10BD30008BFE9DF805209DF8043043EA02231BB2D8
:10BD40009DF8072007EE103A9DF8063043EA0223DB
:10BD50001BB29DF8092007EE903A9DF8083043EA9F
:10BD60000223019A3260164A12780EA901EB820270
:10BD700012ED066A134AB8EEC77A1278C7EE065A71
:10BD800001EB82021BB2B38052ED0B6AF8EEE77A48
:10BD900025EEA67A86ED027A87EE867A67EE267A17
:10BDA000C6ED037A07EE903AF8EEE77A87EE867AE8
:10BDB00067EE267AC6ED047A0FB0F0BDB0DB020064
:10BDC000452C0020442C00206DDF704779DF704740
:10BDD0007DDF704764DF70472DE9F04F85B00025A7
:10BDE0000E9CBDF83CB0B4F800A001910746904607
:10BDF0001E46A9463A884A450DDC45B12388013BD9
:10BE0000A3EB0A039BB2FF2B3AD806F80A300020B6
:10BE100005B0BDE8F08F7A6852F82900039000223F
:10BE20000DF10B0103A8FFF7D5FF0028F0D19DF815
:10BE30000B20424521D12288002D14BF0020022072
:10BE400002EB0801014459451ADC3DB9013292B2B6
:10BE5000019B2280B35422880132228022880DF176
:10BE60000B01324403A8FFF7B5FF0028D0D1218889
:10BE70009DF80B200A442280012509F10109B9E748
:10BE80000C20C5E72DE9F341089FBDF82480154635
:10BE9000CDE90078022204461E46FFF79DFF50B907
:10BEA0003346102229462046CDE9087802B0BDE885
:10BEB000F041FFF791BF02B0BDE8F0812DE9F04FEE
:10BEC00000231788138090F82D3085B006460D4664
:10BED000144653B3082F01D80C2027E102A8FFF71E
:10BEE00073FF002840F0228123880822EA54238827
:10BEF00001339BB21B222380EA542088013080B298
:10BF0000208006220DF10901284401F025F923883B
:10BF10009DF8082006339BB212F0FE0218BF0122E2
:10BF20002380EA54238801332380B378FBB123882C
:10BF30000433BB42D0D802A8FFF748FF002840F0E6
:10BF4000F58023880322EA54238801339BB2192207
:10BF50002380EA542388BDF8082001339BB2E918F6
:10BF60002380EA54120A4A70238802332380F2782D
:10BF70009AB12388D91CB942AED80221E95423884A
:10BF800001339BB201212380E95423880B449BB2E7
:10BF90002380EA5423880B4423807268AAB1238843
:10BFA000D91CB94298D8022192F90020E95423887B
:10BFB00001339BB20A212380E954238801339BB2C9
:10BFC0002380EA542388013323803389002B40F0F7
:10BFD000A180338A5BB1CDE900472B4607220321BC
:10BFE00006F11000FFF74EFF002840F09F80338BD2
:10BFF0005BB1CDE900472B461522142106F118004C
:10C00000FFF740FF002840F09180326A002A40F09C
:10C010009080D6F82480B8F1000F30D0B8F8043002
:10C020002188981C8A1C0244BA423FF655AFFE286C
:10C030003FF652AF03336B54238801339BB2FF2288
:10C040002380EA54238801339BB22380B8F8002070
:10C05000EA54E918120A4A702088023080B220801F
:10C06000B8F804205AB1D8F8081000296BD0284439
:10C0700001F072F82388B8F804201344238096F85E
:10C080002C30002B40F09A80307800284ED0338836
:10C09000012B58D0228802F1020CBC453FF61CAFA0
:10C0A000012805D17378023313449F42FFF414AF83
:10C0B000023FBF1ABFB202A905EB0C00ADF8087031
:10C0C000FFF786FE90BB3178BDF80830022900F0FA
:10C0D000BA8072789A4202D3BB4240F2B280012900
:10C0E00040F0B380974293B2C0F0AF80ADF8083013
:10C0F0000821BDF80830FE2B3FF6EEAE2288013352
:10C10000AB542288013292B22280A954228813446F
:10C1100023800BE0CDE900472B460622022106F1E1
:10C120000800FFF7AFFE00283FF453AF05B0BDE8AD
:10C13000F08FB4F800C00CF10603BB423FF6CCAE62
:10C140001188052901D80720F0E76FF4486E01EB4C
:10C150000E039BB24FF27D3E7345F4D95388052BF5
:10C16000F1D96FF44860181880B27045EBD94FF6DA
:10C17000FF70814203D0834201D09942E3D8052366
:10C1800005F80C30238801339BB212212380E95437
:10C19000238801339BB223801188E954E818090AE7
:10C1A0004170238802339BB223805288EA54E918F5
:10C1B000120A4A702388023323802AE7B36A002BCD
:10C1C000C1D04FF000094FF00C0A4FF0160B96F853
:10C1D0002C305FFA89F293427FF656AFB16A0AFBC0
:10C1E00002F201EB0208B8F80430981CFE283FF672
:10C1F00073AE208803332B54238801339BB22380F2
:10C2000005F803B0238801339BB223808A5AEA548D
:10C21000E918120A4A702088023080B22080B8F8EB
:10C2200004205AB1D8F8081000298CD0284400F016
:10C2300093FF2388B8F804201344238009F10109EF
:10C24000C5E7092155E7BB42FBD9ADF808704FE7B8
:10C2500075DF704776DF70477ADF70477BDF7047A6
:10C26000034B1A8882420CBF18460020704700BF5B
:10C27000642C0020024B9B6903B11847704700BF34
:10C28000482C002073B585B22846FFF7E9FF044625
:10C2900070B1164E027A337B9A420BD200F10A013A
:10C2A0002846FFF7D5FFE8B1112801D0FFF7E2FFDC
:10C2B00002B070BD00230372337C43B13B2128469A
:10C2C000FFF7C8FF30F0080301D0FFF7D3FF736911
:10C2D000002BEDD000228DF80420ADF8065001A807
:10C2E0009847E5E7237A01332372E1E7482C0020E1
:10C2F00037B50B46497A0F4A71B9D2E901141D7A54
:10C300000246002D18BF21465868FBF79EFF08B172
:10C31000FFF7B0FF03B030BD002119725369002B45
:10C32000F8D00122ADF806008DF8042001A8984746
:10C33000F0E700BF482C00204B8802889A4213D8AF
:10C3400042889A4210D380888A8840F2F313984238
:10C3500094BF031AC31A934206D800F2F310904216
:10C3600034BF002001207047002070470388122B43
:10C3700070B5014659D004D8102B1ED0112B44D0D3
:10C3800070BD502BFCD12F4BC288DB899A42F7D16C
:10C39000038A022BF4D186883046FFF761FF0546F9
:10C3A0000028EDD001F1120000F03FF938BB6868B9
:10C3B000FBF763FF0028E3D009E0C37B012BDFD14B
:10C3C0004FF6FF70FFF74CFF054620B90420BDE88B
:10C3D0007040FFF74FBF1C4A8E880680002303720F
:10C3E0001368C0F80A305368C0F80E3010310A30B4
:10C3F000FFF7A2FF134B6872DB89002BC0D12946DF
:10C400003046BDE87040FFF773BF8088FFF728FF14
:10C4100004460028B4D04068FBF72FFF08B1FFF7AF
:10C4200029FF4FF6FF732380AAE786883046FFF77F
:10C4300017FF05460028A3D008310A30FFF77CFF1C
:10C440006872DCE7482C0020782C0020F8B50646FE
:10C4500048B305460FCD154F3C460FC495E807007D
:10C4600084E807003068124C3C60B0B1FFF7F4FE7E
:10C47000C0B9326813682360536863600D480E4A80
:10C480004FF6FF7303800D4B40F8043F0021FBF78C
:10C49000D1FE002818BF032004E02046FFF7DEFE8F
:10C4A0000028EBD0F8BD0E20FCE700BF482C002090
:10C4B000782C0020642C002085C20200802C0020F3
:10C4C0000AB1FCF7B3B9FCF7BAB973B50191019C95
:10C4D00006466CB100252C46294601A8FCF7B9F99F
:10C4E00018B106EB440301349D800135142DF3D1BE
:10C4F0003046346002B070BD2DE9F047038884886F
:10C50000103B8CB005460A2B1FD8DFE803F0063F2E
:10C510001E1E1E1E1E1E1E604400314EB368DB43ED
:10C52000009371686846FCF7C0F9009901A8FFF70D
:10C53000CCFF0DF108094FF00008019B984507D387
:10C54000132C13D90420FBF781FD0CB0BDE8F08754
:10C5500039F802AB00270137514606EB8700FCF79C
:10C560006EF91E2FF7D108F10108E6E71D482146B4
:10C57000FCF75CF91C482146FCF758F9EB7B022BD1
:10C58000E3D11A482146FCF751F9DEE71548214668
:10C59000FCF755F9D9E7027A15483F2A4FEA1215F8
:10C5A000214694BF00220122FFF78AFF022D94BF8B
:10C5B000002201220F482146FFF782FF012D0E487D
:10C5C00094BF002201222146FFF77AFFBDE7037ADC
:10C5D000002BBAD1427A0648C2F3C0022146F3E7E3
:10C5E000A02C0020A82C0020A42C0020AC2C002083
:10C5F000B82C0020B42C0020B02C0020AADF7047FB
:10C60000002301380B70042806D8DFE800F0030689
:10C61000080A0C0011230B7070472123FBE731231C
:10C62000F9E71223F7E72223F5E7007800F001008D
:10C630007047F0B58B7891B0012B0C4638BF0123C1
:10C640008DF80E3005460B88ADF80C3000211646EB
:10C650006846032200F0A9FD607C6946FFF7D0FF21
:10C66000A07C0DF10101FFF7CBFFE27B237B217D55
:10C6700043EAC203227C43EA02139DF80220002908
:10C6800022F0190203F0190314BF02210121134300
:10C6900061F342031C22002109A88DF8023000F04A
:10C6A00084FD637B13F0300F15D002AF032200210D
:10C6B000384600F07AFDE07C0DF10901FFF7A0FF9C
:10C6C00011238DF808309DF80A300E97012262F38D
:10C6D00042038DF80A30637B8DF824301422A37B4B
:10C6E0008DF82530002104A800F05FFD03AB049312
:10C6F000A388ADF81C30A368CDF814D01BB1E28834
:10C70000ADF818200893A369002B31D001AF0322A4
:10C710000021384600F049FDA3691A88ADF82C20A5
:10C720005A88ADF82E205A680D97187B0A92394620
:10C73000FFF766FFA3690DF10501587BFFF760FF66
:10C74000A269917A137A43EAC103D17A927B43EAD0
:10C7500001139DF80610002A03F0190321F01901B6
:10C7600014BF022201220B4362F342038DF806300C
:10C77000E36903B10C93334604AA09A92846FFF7DD
:10C780003DFF11B0F0BD90DF7047A5DF7047B5DF0A
:10C79000704700007FB50023ADF80810ADF80A100F
:10C7A0006A4602A9064603930093ADF80430FFF7EA
:10C7B000EAFF054600B3124B124CE41AE408FCF7FA
:10C7C0001FFC240444F0010403460F49324620466E
:10C7D000FBF743F9BDF80020BDF8023052EA03012F
:10C7E00003D00A492046FBF738F9BDF804201AB1F6
:10C7F00007492046FBF728F9284604B070BD00BF62
:10C80000D8D2020040D30200F6DB020040DC020076
:10C810007FDC020078B14FF0171303601B23037114
:10C820001723C380038141F61B320023016143813A
:10C830008281184670470E207047000013B50346EA
:10C8400080880C46B8B91A88242A00F0958014D83C
:10C85000112A71D0232A00F09D80102A3BD0A37AA0
:10C860004BB1E1880020FFF790FF002840F098804E
:10C870004FF48073638102B010BD3A2A64D0552A08
:10C88000EDD1DB88C988A072172B38BF17238B42E4
:10C8900028BF0B462381FFF77AFF60B1FCF7B0FB9E
:10C8A000484B4949024649481B1ADB081B0443F020
:10C8B0000100FBF7C9F8E37A002BD0D12369002BE4
:10C8C000CDD040F6772200922289ADF80420694647
:10C8D00020469847C3E7DB7B0A790A73012B13D004
:10C8E000022B14D0E18823898B4205D20020FFF768
:10C8F0004CFF70B90123E372217B637B8B42AED284
:10C900000020FFF747FFAAE70B88E380EAE74B88A0
:10C91000FBE7112802D10123A372EDE7FCF770FBBE
:10C92000284B2B49024629481B1ADB081B0443F0FD
:10C930000100FBF789F8DFE71723CB800B8141F675
:10C940001B3348818B818AE75B89CA88934228BF61
:10C950001346172B0A6938BF17230B814AB1C97ACE
:10C9600039B140F677210091ADF804306946204690
:10C9700090470023638172E71A7A0B694A73002B90
:10C980003FF46DAF4DF67A218DF8050000918DF8DA
:10C9900004209CE7197A237B994228BF1946B0E707
:10C9A00011283FF468AFFCF72BFB064B0849024601
:10C9B00006481B1ADB081B0443F00100FBF744F890
:10C9C00059E700BF40D3020006DD0200D8D20200C2
:10C9D000D5DC0200B0DF704766DF704710B500217C
:10C9E00004464088FFF7F8FF034608B9237210BDDC
:10C9F000112801D10123F9E76368BDE81040184709
:10CA000060B159B10378DE2B0AD00B684360DE2396
:10CA100003704FF6FF734380002070470E2070476D
:10CA20000820704728B10378DE2B04D14180002014
:10CA300070470E20704708207047F0B5054685B056
:10CA40000C46F1B1E8B10B78DE2B1AD182884B8805
:10CA50009A4204D10B7A13B10846FFF7BFFF2B8827
:10CA6000112B32D0512B0ED0012B0AD12B7A012B56
:10CA700007D1A9886288914203D123722046FFF72B
:10CA8000ADFF05B0F0BDAE886388B342F9D1AF7990
:10CA9000022FF6D1AD7B2B1F022BF2D800211022E2
:10CAA000684600F082FB052D14BF4FF4C0730023CD
:10CAB000694630468DF80070ADF80430FFF78AFF04
:10CAC0000028DED063689847DBE76388AA889A422B
:10CAD00004BF4FF6FF736380D3E7A8DF7047AEDF74
